:100000001AC032C031C030C02FC02EC02DC02CC08D
:100010002BC02AC029C028C027C0ABC025C024C01F
:1000200023C022C021C0C0F9A4B0999282D8809088
:100030009CBF86AFFF0011241FBECFEDCDBF10E0E7
:10004000A0E6B0E0EAEAF2E002C005900D92A23626
:10005000B107D9F720E0A2E6B0E001C01D92A736B3
:10006000B207E1F7C9D01FC1CBCFC498BC9A80EAD0
:100070008A95F1F7BC9894E19A95F1F786B39CE8DC
:100080009A95F1F780710895C498BC9A0000811187
:10009000BC9884E18A95F1F7BC980895C498BC9AFD
:1000A0000000BC9884E08A95F1F700C086B39FE019
:1000B0009A95F1F7829581700895CF93DF93D82FA9
:1000C000C9E0C15029F08D2F8170DEDFD695F9CFC0
:1000D000DF91CF910895CF93DF93D9E0C0E0D15065
:1000E00039F0DCDF879588278795C695C82BF7CF31
:1000F0008C2FDF91CF910895B8DF8CECDEDF8EE49A
:10010000DCDF80E0DADF80E0D8DF8FE1D6CFCF938D
:10011000DF93ABDF8CECD1DF84E4CFDFBFDF88235C
:10012000E9F3A3DF8CECC9DF8EEBC7DFD4DFC82F88
:10013000D2DFD82F9ADF8D2F8295807FC295CF7026
:100140008C2BDF91CF9108958FEF81BB82BB87B35A
:100150008F6087BB88B3807F88BB80B7826080BF99
:1001600083B7836083BF8DE486BF89B7816089BF11
:1001700008951F920F920FB60F9211248F939F93A1
:10018000EF93FF9388B3807F88BB809160008130BC
:1001900019F4E09162000EC0823019F4E09164001D
:1001A00009C0843019F4E091650004C0883039F446
:1001B000E0916600F0E0EA5DFF4FE491E2BB88B3B6
:1001C000909160009F70807F892B88BB8091600038
:1001D000880F893008F081E080936000809163008F
:1001E0008F5F80936300FF91EF919F918F910F90AC
:1001F0000FBE0F901F901895A7DF83E080936200D9
:1002000081E080936400789477DF2FE986E891E0BD
:10021000215080409040E1F700C00000CAE01EE09D
:10022000DDE00CE080916300893CE0F31EDF882371
:1002300049F010936200D0936400D093650000935E
:10024000660022C064DF282F382F331F3327331F67
:1002500009F02195C0936200822F6C2F18D09093E3
:1002600064002A3040F4313011F08EE001C08BE0A0
:100270008093650004C080936500313011F08EE0FA
:1002800001C08BE08093660010926300CBCF991B76
:1002900079E004C0991F961708F0961B881F7A957D
:0A02A000C9F780950895F894FFCF88
:0202AA00010051
:00000001FF
